S01700004763634170706C69636174696F6E312E737265635B
S11300000C944A000C9454000C9454000C94540026
S11300100C9454000C9454000C9454000C9454000C
S11300200C9454000C9454000C9454000C945400FC
S11300300C9454000C9454000C9454000C945400EC
S11300400C9454000C9454000C9454000C945400DC
S11300500C945400001F000000001F00001F10102B
S113006010101F00001F181818181F00001F1C1C58
S11300701C1C1F00001F1E1E1E1E1F00001F1F1F12
S11300801F1F1F0003070F1F0F070300181C1E1F4D
S11300901E1C180011241FBECFE5D8E0DEBFCDBF63
S11300A00E9412010C9419010C94000085BB82B3C8
S11300B0826082BB82B3816082BB83E490E0FC01F6
S11300C03197F1F722B32E7F22BB22B32D7F22BBBF
S11300D00197F1F7089585BB82B3816082BB83E405
S11300E090E0FC013197F1F722B32E7F22BB0197F8
S11300F0F1F7089581E00E946B000895EF92FF925A
S11301000F931F93CF93DF937C01862F90E0880F8A
S1130110991F880F991F880F991F8064C0E0D0E051
S11301200DC0F701EC0FFD1F149101E0080F0E94B0
S11301306B00812F0E9456002196802FC830D10574
S113014080F3DF91CF911F910F91FF90EF9008956D
S1130150CF93DF9384EF93E00197F1F715BA12BAC6
S113016084B38FEF84BB81B3876081BB20E325BB5D
S113017082B3816082BB83E490E0FC013197F1F7A4
S113018032B33E7F32BBFC013197F1F725BB32B36A
S1130190316032BBFC013197F1F732B33E7F32BBA1
S11301A0FC013197F1F725BB22B3216022BBFC018E
S11301B03197F1F722B32E7F22BBFC013197F1F77F
S11301C028E325BB22B3216022BBFC013197F1F760
S11301D022B32E7F22BBFC013197F1F72CE025BB23
S11301E022B3216022BB0197F1F782B38E7F82BBD9
S11301F081E591E00197F1F760E0C0E00AC0D1E049
S1130200D60F8C2F90E08C5A9F4F0E947E00C85FBF
S11302106D2FC034A0F3DF91CF9108958FE00E9439
S11302206B0008950E94A8000E947A000E940E01AB
S1090230FFCFF894FFCF9C
S9030000FC
