S01700005254435F4C43442D446973706C61792E73726563EF
S11300000C942A000C9447000C9447000C9447006D
S11300100C9467030C9447000C9447000C9447001D
S11300200C9447000C9450000C9447000C94470027
S11300300C9447000C9447000C9447000C94470020
S11300400C9447000C9447000C9447000C94470010
S11300500C94470011241FBECFE5D8E0DEBFCDBF0E
S113006010E0A0E6B0E0E8E9F1E102C005900D92ED
S1130070A43AB107D9F720E0A4EAB0E001C01D9288
S1130080A83AB207E1F70E94CE010C94CA080C9476
S113009000008EB582608EBD8EB58A7F8EBD0895B8
S11300A01F920F920FB60F9211248F9382E08093C8
S11300B0A4008F910F900FBE0F901F9018950E946F
S11300C04900A69A789408958F929F92AF92BF9216
S11300D0CF92DF92EF92FF921F93CF93DF93D82FAB
S11300E0882309F45AC0C12CD12C7601C0E014E055
S11300F0AE9A2AE12A95F1F700C0AE989F9BFECFF5
S11301001DBC1CBC1092A40088B78B7F88BF89B724
S1130110846089BF9F99FECF6CB57DB580E090E087
S11301200E94AC0420E030E040E051E40E9463050A
S113013020E034E244EF5AE40E940B0420E030E073
S113014040E05FE30E9463054B015C0120E53DE86C
S113015047E15DE30E945E05181614F41093A400B1
S11301602AE939E94BEA53E4C501B4010E94630565
S11301709B01AC01C701B6010E949A036B017C018B
S11301808FE798E321E0815090402040E1F700C0E0
S11301900000CF5FDC13ACCF03C0C12CD12C76019F
S11301A08091A400811111C06D2F70E080E090E077
S11301B00E94AE049B01AC01C701B6010E940B046E
S11301C0562F472F382F292F10C06091A40070E0BC
S11301D0719561957109072E000C880B990B0E948B
S11301E0AE04562F472F382F292F652F742F832FB6
S11301F0922FDF91CF911F91FF90EF90DF90CF90DE
S1130200BF90AF909F908F900895969A82E08A95C0
S1130210F1F700C096980895CF93DF93D82F662303
S113022011F0949A01C09498959881B38F6081BB22
S1130230C2B3C07F8D2F82958F708C2B82BB0E949E
S11302400501DF70DC2BD2BB0E940501CF60C2BB6D
S1130250DF91CF910895882311F0949A01C0949866
S1130260959A81B3807F81BB969A82E08A95F1F753
S113027000C090B3969882E08A95F1F700C0969AF0
S113028082E08A95F1F700C020B32F70892F829500
S1130290807F9698822B089580E00E942B0188230A
S11302A0DCF38AE08A95F1F700C080E00E942B011C
S11302B00895CF93C82F0E944C0160E08C2F0E94B8
S11302C00C01CF910895611104C080580E94590116
S11302D0089580540E945901089581E00E945901B3
S11302E00895CF93C82F0E944C01CA3049F480343A
S11302F010F080E001C080E480580E94590104C0DD
S113030061E08C2F0E940C01CF910895CF93DF936D
S1130310EC012196FC018081882329F00E9471015F
S113032089918111FBCFDF91CF910895CF93C82F8D
S113033081B38F6781BB8FEF9CE70197F1F700C012
S11303400000919A909A0E9405018FE097E201972C
S1130350F1F700C000000E9405019AEA9A95F1F7AE
S113036000C00E9405018AEA8A95F1F700C09098BE
S11303700E9405019AEA9A95F1F700C088E20E946A
S1130380590188E00E9459010E946D0186E00E9493
S113039059018C2F0E945901CF910895CF93DF9377
S11303A0CDB7DEB7A0970FB6F894DEBF0FBECDBFB2
S11303B01A8219828EE0FE013396DF01282F1D92E6
S11303C02A95E9F71A8A198A7096DF011D928A958F
S11303D0E9F78FEF87BBA19A15BABFEFE9E6F8E119
S11303E0B150E040F040E1F700C00000A99A8CE071
S11303F00E9496010E946D010E945F006894FF2490
S1130400F4F88E010F5F1F4FD801EF2D1D92EA956E
S1130410E9F7D8010D900020E9F711978BE0E0E6A9
S1130420F0E001900D928A95E1F760E080E00E948F
S11304306301C8010E948601D8011D92FA94E9F76C
S1130440D8010D900020E9F711978FE0EBE6F0E07A
S113045001900D928A95E1F761E080E00E946301CA
S1130460C8010E9486018EE00E9464006B017C0139
S1130470BFE7E8E3F1E0B150E040F040E1F700C04D
S1130480000004E110E05DC08EE00E9464006B0196
S11304907C012FE738E381E0215030408040E1F7D0
S11304A000C000000150110909F04BC06894FF24FA
S11304B0F4F88E010F5F1F4FD801EF2D1D92EA95BE
S11304C0E9F7D8010D900020E9F711978DE0EAE7EC
S11304D0F0E001900D928A95E1F760E080E00E94DF
S11304E06301C8010E948601D8011D92FA94E9F7BC
S11304F0D8010D900020E9F711978FE0E7E8F0E0CC
S113050001900D928A95E1F761E080E00E94630119
S1130510C8010E9486018FEF18BABFE7EAE1F6E04E
S1130520B150E040F040E1F700C0000088BB2FE785
S11305303AE196E0215030409040E1F700C00000DD
S1130540EBCF20E030E0A901C701B6010E94060408
S113055088230CF499CF0E946D01AFEFB0E7E2E07D
S1130560A150B040E040E1F700C000008FEF88BB2D
S113057020E030E048EC52E4C701B6010E94630574
S11305800E947D04262E862F809588BBFFEF24E3EE
S11305903CE0F15020403040E1F700C00000312C35
S11305A0C12CD12C912C6894882484F88E010F5F7F
S11305B01F4F0F2EF0EAAF2EF0E0BF2EF02D7E017C
S11305C081E1E80EF11C88E00E9464002B013C01EB
S11305D020E030E0A9010E945E0588236CF020E051
S11305E030E048EC52E4C301B2010E9463050E946A
S11305F07D04609568BB01C018BA20E030E048EC87
S113060052E4C301B2010E9463050E947D04621595
S1130610D8F4332051F09FEFA0E7B2E09150A0400E
S1130620B040E1F700C0000019C0EFEFCE1ADE0AB7
S1130630FFEF20E732E0F15020403040E1F700C006
S11306400000332433940AC08FEF90E7A2E0815076
S11306509040A040E1F700C00000392CF801282D9B
S113066011922A95E9F7D8010D900020E9F7119726
S11306708AE0E6E9F0E001900D928A95E1F7692DB0
S1130680892D0E946301C8010E948601D801E82DCA
S11306901D92EA95E9F7DF92CF92BF92AF92FF9253
S11306A0EF920E94E00540E150E0B701C8010E94CA
S11306B0D00561E0892D0E946301C8010E94860172
S11306C00F900F900F900F900F900F907CCF1F9270
S11306D00F920FB60F9211248F9385B585BD80912B
S11306E0A7008F5F8093A7008091A7008C3339F413
S11306F08091A5008F5F8093A5001092A700809140
S1130700A5008C3339F48091A6008F5F8093A600F6
S11307101092A5008091A600883111F41092A600D1
S113072082B58770E9F78F910F900FBE0F901F90DD
S113073018955058BB27AA270E94B1030C9424058E
S11307400E94160538F00E941D0520F039F49F3FE1
S113075019F426F40C9413050EF4E095E7FB0C94BD
S11307600D05E92F0E94350558F3BA176207730780
S11307708407950720F079F4A6F50C9457050EF438
S1130780E0950B2EBA2FA02D0B01B90190010C019D
S1130790CA01A0011124FF27591B99F0593F50F4B5
S11307A0503E68F11A16F040A22F232F342F44270D
S11307B0585FF3CF469537952795A795F040539505
S11307C0C9F77EF41F16BA0B620B730B840BBAF0D5
S11307D09150A1F0FF0FBB1F661F771F881FC2F740
S11307E00EC0BA0F621F731F841F48F48795779554
S11307F06795B795F7959E3F08F0B0CF9395880F0E
S113080008F09927EE0F9795879508950E94E904BB
S113081008F481E008950E941F040C9424050E94AA
S11308201D0558F00E94160540F029F45F3F29F099
S11308300C940D0551110C9458050C9413050E9449
S1130840350568F39923B1F3552391F3951B550BA3
S1130850BB27AA2762177307840738F09F5F5F4F8F
S1130860220F331F441FAA1FA9F335D00E2E3AF0CE
S1130870E0E832D091505040E695001CCAF72BD0E6
S1130880FE2F29D0660F771F881FBB1F2617370737
S11308904807AB07B0E809F0BB0B802DBF01FF2769
S11308A093585F4F3AF09E3F510578F00C940D0534
S11308B00C9458055F3FE4F3983ED4F386957795FE
S11308C06795B795F7959F5FC9F7880F911D969522
S11308D0879597F90895E1E0660F771F881FBB1F7E
S11308E0621773078407BA0720F0621B730B840B2B
S11308F0BA0BEE1F88F7E09508950E943D0588F035
S11309009F5798F0B92F9927B751B0F0E1F0660FCF
S1130910771F881F991F1AF0BA95C9F714C0B13010
S113092091F00E945705B1E008950C945705672F84
S1130930782F8827B85F39F0B93FCCF3869577953F
S11309406795B395D9F73EF4909580957095619528
S11309507F4F8F4F9F4F0895E89409C097FB3EF453
S113096090958095709561957F4F8F4F9F4F9923F8
S1130970A9F0F92F96E9BB279395F6958795779576
S11309806795B795F111F8CFFAF4BB0F11F460FF36
S11309901BC06F5F7F4F8F4F9F4F16C0882311F08E
S11309A096E911C0772321F09EE8872F762F05C0A2
S11309B0662371F096E8862F70E060E02AF09A953D
S11309C0660F771F881FDAF7880F9695879597F932
S11309D00895990F0008550FAA0BE0E8FEEF1616CC
S11309E01706E807F907C0F012161306E407F5071F
S11309F098F0621B730B840B950B39F40A2661F093
S1130A00232B242B252B21F408950A2609F4A14035
S1130A10A6958FEF811D811D089597F99F6780E842
S1130A2070E060E008959FEF80EC089500240A943C
S1130A301616170618060906089500240A941216B5
S1130A401306140605060895092E0394000C11F4E8
S1130A50882352F0BB0F40F4BF2B11F460FF04C095
S1130A606F5F7F4F8F4F9F4F089557FD9058440FEE
S1130A70551F59F05F3F71F04795880F97FB991FF9
S1130A8061F09F3F79F087950895121613061406B6
S1130A90551FF2CF4695F1DF08C016161706180643
S1130AA0991FF1CF86957105610508940895E8941E
S1130AB0BB2766277727CB0197F908950E94E9049D
S1130AC008F48FEF08950E9476050C9424050E9483
S1130AD0160538F00E941D0520F0952311F00C94A2
S1130AE00D050C94130511240C9458050E9435052A
S1130AF070F3959FC1F3950F50E0551F629FF0016D
S1130B00729FBB27F00DB11D639FAA27F00DB11D85
S1130B10AA1F649F6627B00DA11D661F829F22270E
S1130B20B00DA11D621F739FB00DA11D621F839F95
S1130B30A00D611D221F749F3327A00D611D231F6B
S1130B40849F600D211D822F762F6A2F11249F57B9
S1130B5050409AF0F1F088234AF0EE0FFF1FBB1FBC
S1130B60661F771F881F91505040A9F79E3F51057B
S1130B7080F00C940D050C9458055F3FE4F3983E07
S1130B80D4F3869577956795B795F795E7959F5F25
S1130B90C1F7FE2B880F911D9695879597F90895B7
S1130BA0FB01DC010D900020E9F711974150504002
S1130BB028F0019000200D92C9F708951C92089521
S1130BC0AEE0B0E0E6EEF5E00C94A1080D891E89D4
S1130BD086E08C831A8309838FEF9FE79E838D833E
S1130BE0AE01475E5F4F6F89788DCE0101960E94FA
S1130BF00206EF81F885E00FF11F10822E96E4E0E3
S1130C000C94BD08ABE0B0E0E8E0F6E00C94930887
S1130C106C017B018A01FC0117821682838181FFAA
S1130C20CCC1CE0101963C01F6019381F70193FDFD
S1130C30859193FF81917F01882309F4BAC185329C
S1130C4039F493FD859193FF81917F01853229F4D5
S1130C50B60190E00E94F907E7CF912C212C312CAA
S1130C60FFE1F315D8F08B3279F038F4803279F063
S1130C708332A1F4232D20611DC08D3261F08033B5
S1130C8069F4232D216016C0832D8260382EE32D54
S1130C90E4603E2E2AC0F32DF8601DC037FC2DC041
S1130CA020ED280F2A3040F08E32B9F436FC81C191
S1130CB0232D2064322E19C036FE06C08AE0989E89
S1130CC0200D1124922E11C0EAE02E9E200D112435
S1130CD0222EF32DF0623F2E08C08C3621F4832D92
S1130CE08068382E02C0883641F4F70193FD85915F
S1130CF093FF81917F018111B3CF982F9F7D9554EC
S1130D00933028F40C5F1F4F9FE399830DC0833603
S1130D1031F0833771F0833509F059C021C0F801EF
S1130D20808189830E5F1F4F88248394912C530103
S1130D3013C02801F2E04F0E511CF801A080B180CD
S1130D4036FE03C0692D70E002C06FEF7FEFC5016E
S1130D500E94EE074C018201F32DFF773F2E16C04F
S1130D60280122E0420E511CF801A080B18036FE19
S1130D7003C0692D70E002C06FEF7FEFC5010E94D0
S1130D80E3074C01F32DF0683F2E820133FC1BC0B6
S1130D90822D90E088169906B0F4B60180E290E0C6
S1130DA00E94F9072A94F4CFF50137FC859137FEA8
S1130DB081915F01B60190E00E94F90721102A9405
S1130DC021E0821A91088114910471F7E8C08436F5
S1130DD011F0893641F5F80137FE07C06081718151
S1130DE0828193810C5F1F4F08C060817181072E3F
S1130DF0000C880B990B0E5F1F4FF32DFF763F2ECF
S1130E0097FF09C090958095709561957F4F8F4F9E
S1130E109F4FF0683F2E2AE030E0A3010E9435087E
S1130E20882E861845C0853731F4232D2F7EB22EA7
S1130E302AE030E025C0932D997FB92E8F36C1F07A
S1130E4018F4883579F0B5C0803719F0883721F067
S1130E50B0C0E92FE061BE2EB4FE0DC0FB2DF460DE
S1130E60BF2E09C034FE0AC0292F2660B22E06C048
S1130E7028E030E005C020E130E002C020E132E0AB
S1130E80F801B7FE07C060817181828193810C5F94
S1130E901F4F06C06081718180E090E00E5F1F4F9C
S1130EA0A3010E943508882E8618FB2DFF773F2E5C
S1130EB036FE0DC0232D2E7FA22E891458F434FE45
S1130EC00BC032FC09C0832D8E7EA82E05C0B82C21
S1130ED0A32C03C0B82C01C0B92CA4FE0FC0FE0182
S1130EE0E80DF11D8081803321F49A2D997EA92E7D
S1130EF009C0A2FE06C0B394B39404C08A2D8678B8
S1130F0009F0B394A3FC11C0A0FE06C0B21488F487
S1130F10280C922C9B180EC0B21460F4B60180E227
S1130F2090E00E94F907B394F7CFB21418F42B1889
S1130F3002C0982C212CA4FE10C0B60180E390E0DE
S1130F400E94F907A2FE17C0A1FC03C088E790E045
S1130F5002C088E590E0B6010CC08A2D867859F06D
S1130F60A1FE02C08BE201C080E2A7FC8DE2B601C3
S1130F7090E00E94F907891438F4B60180E390E008
S1130F800E94F9079A94F7CF8A94F301E80DF11DB2
S1130F908081B60190E00E94F9078110F5CF2220EC
S1130FA009F442CEB60180E290E00E94F9072A9447
S1130FB0F6CFF6018681978102C08FEF9FEF2B96C3
S1130FC0E2E10C94AF08FC010590615070400110FF
S1130FD0D8F7809590958E0F9F1F0895FC0161505E
S1130FE0704001900110D8F7809590958E0F9F1F47
S1130FF008950F931F93CF93DF93FB01238121FD6A
S113100003C08FEF9FEF2CC022FF16C0468157818B
S1131010248135814217530744F4A081B1819D0195
S11310202F5F3F4F318320838C93268137812F5F3D
S11310303F4F3783268314C08B01EC01FB010084EE
S1131040F185E02D0995892BE1F6D80116968D914D
S11310509C911797019617969C938E931697CE01A1
S1131060DF91CF911F910F910895FA01AA2728309B
S113107051F1203181F1E8946F936E7F6E5F7F4F61
S11310808F4F9F4FAF4FB1E03ED0B4E03CD0670FDD
S1131090781F891F9A1FA11D680F791F8A1F911D30
S11310A0A11D6A0F711D811D911DA11D20D009F480
S11310B068943F912AE0269F11243019305D3193C2
S11310C0DEF6CF010895462F4770405D4193B3E0AB
S11310D00FD0C9F7F6CF462F4F70405D4A3318F052
S11310E0495D31FD4052419302D0A9F7EACFB4E003
S11310F0A6959795879577956795BA95C9F70097BB
S11311006105710508959B01AC010A2E069457955B
S1131110479537952795BA95C9F7620F731F841FB2
S1131120951FA01D08952F923F924F925F926F9248
S11311307F928F929F92AF92BF92CF92DF92EF9263
S1131140FF920F931F93CF93DF93CDB7DEB7CA1BE4
S1131150DB0B0FB6F894DEBF0FBECDBF09942A880F
S1131160398848885F846E847D848C849B84AA84B7
S1131170B984C884DF80EE80FD800C811B81AA8144
S1131180B981CE0FD11D0FB6F894DEBF0FBECDBF0F
S10B1190ED010895F894FFCF6E
S11311984B616C6962697265726500556C74726141
S11311A8736368616C6C2E2E2E004B616C696269E6
S11311B8726572756E67006665686C6765736368E7
S11311C86C6167656E00506572736F6E656E3A0088
S10711D82564000086
S9030000FC
