S01700005254435F4C43442D446973706C61792E73726563EF
S11300000C942A000C9447000C9447000C9447006D
S11300100C94AB010C9447000C9447000C944700DB
S11300200C9447000C9447000C9447000C94470030
S11300300C9447000C9447000C9447000C94470020
S11300400C9447000C9447000C9447000C94470010
S11300500C94470011241FBECFE5D8E0DEBFCDBF0E
S113006010E0A0E6B0E0E2EBF9E002C005900D92EA
S1130070AA36B107D9F720E0AAE6B0E001C01D9284
S1130080AD36B207E1F70E9418010C94D7040C9422
S11300900000969A000096980895CF93DF93D82F86
S11300A0662311F0949A01C09498959881B38F6057
S11300B081BBC2B3C07F8D2F82958F708C2B82BB86
S11300C00E944900DF70DC2BD2BB0E944900CF6044
S11300D0C2BBDF91CF910895882311F0949A01C097
S11300E09498959A81B3807F81BB969A000090B3CF
S11300F096980000969A000020B32F70892F82955D
S1130100807F9698822B089580E00E946C0088235B
S1130110DCF300C000C080E00E946C000895CF931F
S1130120C82F0E94840060E08C2F0E944D00CF9164
S11301300895611104C080580E948F00089580546E
S11301400E948F00089581E00E948F000895CF934C
S1130150C82F0E948400CA3049F4803410F080E033
S113016001C080E480580E948F0004C061E08C2F9D
S11301700E944D00CF910895CF93DF93EC01219617
S1130180FC018081882329F00E94A70089918111B4
S1130190FBCFDF91CF910895CF93C82F81B38F67A1
S11301A081BB8FE99FE00197F1F700C00000919AAD
S11301B0909A0E94490081EE94E00197F1F700C003
S11301C000000E94490095E19A95F1F700000E9411
S11301D0490085E18A95F1F7000090980E94490052
S11301E095E19A95F1F7000088E20E948F0088E07B
S11301F00E948F000E94A30086E00E948F008C2F33
S11302000E948F00CF910895AE9A83E08A95F1F70A
S11302100000AE9820ED37E080E091E09F9B03C0A2
S11302200000892F01C0000021503109B9F7089559
S1130230CF93DF93CDB7DEB7A0970FB6F894DEBFA8
S11302400FBECDBF1A8219828EE0FE013396DF0104
S1130250282F1D922A95E9F71A8A198A7096DF01C8
S11302601D928A95E9F71FEF17BB82E484BBAF9A0E
S113027011BB15BABFE3EDE0F3E0B150E040F0404C
S1130280E1F700C00000A99A8CE00E94CC000E9413
S1130290A30018BB912CCC24C394D12C689488243B
S11302A084F88E010F5F1F4F0F2EF6E6AF2EF0E09D
S11302B0BF2EF02D7E0121E1E20EF11CD801E82DC4
S11302C01D92EA95E9F7D8010D900020E9F71197FE
S11302D086E0E0E6F0E001900D928A95E1F760E0B7
S11302E080E00E949900C8010E94BC00D801E82D5A
S11302F01D92EA95E9F7DF92CF92BF92AF92FF92F7
S1130300EF920E94ED0140E150E0B701C8010E9464
S1130310DD0161E080E00E949900C8010E94BC00F8
S11303200F900F900F900F900F900F90992021F045
S11303300E940401982E08C00E940401982E88236C
S113034019F0FFEFCF1ADF0A8FE097E20197F1F778
S113035000C00000B3CF1F920F920FB60F9211246A
S11303608F9385B585BD80916C008F5F80936C0001
S113037080916C008C3339F480916A008F5F809394
S11303806A0010926C0080916A008C3339F4809179
S11303906B008F5F80936B0010926A0080916B00FA
S11303A0883111F410926B0082B58770E9F78F9150
S11303B00F900FBE0F901F901895FB01DC010D905C
S11303C00020E9F711974150504028F00190002097
S11303D00D92C9F708951C920895AEE0B0E0E3EFE2
S11303E0F1E00C94AE040D891E8986E08C831A8397
S11303F009838FEF9FE79E838D83AE01475E5F4F36
S11304006F89788DCE0101960E940F02EF81F885E5
S1130410E00FF11F10822E96E4E00C94CA04ABE0C6
S1130420B0E0E5E1F2E00C94A0046C017B018A01E8
S1130430FC0117821682838181FFCCC1CE01019613
S11304403C01F6019381F70193FD859193FF81911E
S11304507F01882309F4BAC1853239F493FD85916B
S113046093FF81917F01853229F4B60190E00E94C7
S11304700604E7CF912C212C312CFFE1F315D8F0A1
S11304808B3279F038F4803279F08332A1F4232D61
S113049020611DC08D3261F0803369F4232D216009
S11304A016C0832D8260382EE32DE4603E2E2AC0D0
S11304B0F32DF8601DC037FC2DC020ED280F2A3025
S11304C040F08E32B9F436FC81C1232D2064322EE3
S11304D019C036FE06C08AE0989E200D1124922E83
S11304E011C0EAE02E9E200D1124222EF32DF0627D
S11304F03F2E08C08C3621F4832D8068382E02C02C
S1130500883641F4F70193FD859193FF81917F0132
S11305108111B3CF982F9F7D9554933028F40C5FAD
S11305201F4F9FE399830DC0833631F0833771F0F9
S1130530833509F059C021C0F801808189830E5F99
S11305401F4F88248394912C530113C02801F2E097
S11305504F0E511CF801A080B18036FE03C0692DF6
S113056070E002C06FEF7FEFC5010E94FB034C01F6
S11305708201F32DFF773F2E16C0280122E0420EA0
S1130580511CF801A080B18036FE03C0692D70E0D3
S113059002C06FEF7FEFC5010E94F0034C01F32D01
S11305A0F0683F2E820133FC1BC0822D90E0881638
S11305B09906B0F4B60180E290E00E9406042A9401
S11305C0F4CFF50137FC859137FE81915F01B601C7
S11305D090E00E94060421102A9421E0821A9108D6
S11305E08114910471F7E8C0843611F0893641F51D
S11305F0F80137FE07C060817181828193810C5FAD
S11306001F4F08C060817181072E000C880B990B65
S11306100E5F1F4FF32DFF763F2E97FF09C0909575
S11306208095709561957F4F8F4F9F4FF0683F2E57
S11306302AE030E0A3010E944204882E861845C0B7
S1130640853731F4232D2F7EB22E2AE030E025C0E9
S1130650932D997FB92E8F36C1F018F4883579F02F
S1130660B5C0803719F0883721F0B0C0E92FE061B8
S1130670BE2EB4FE0DC0FB2DF460BF2E09C034FEA7
S11306800AC0292F2660B22E06C028E030E005C03B
S113069020E130E002C020E132E0F801B7FE07C0FB
S11306A060817181828193810C5F1F4F06C06081DC
S11306B0718180E090E00E5F1F4FA3010E9442040D
S11306C0882E8618FB2DFF773F2E36FE0DC0232D76
S11306D02E7FA22E891458F434FE0BC032FC09C0BC
S11306E0832D8E7EA82E05C0B82CA32C03C0B82C55
S11306F001C0B92CA4FE0FC0FE01E80DF11D8081DC
S1130700803321F49A2D997EA92E09C0A2FE06C039
S1130710B394B39404C08A2D867809F0B394A3FCEF
S113072011C0A0FE06C0B21488F4280C922C9B18A9
S11307300EC0B21460F4B60180E290E00E94060498
S1130740B394F7CFB21418F42B1802C0982C212CB0
S1130750A4FE10C0B60180E390E00E940604A2FE4D
S113076017C0A1FC03C088E790E002C088E590E0D0
S1130770B6010CC08A2D867859F0A1FE02C08BE226
S113078001C080E2A7FC8DE2B60190E00E9406045D
S1130790891438F4B60180E390E00E9406049A9428
S11307A0F7CF8A94F301E80DF11D8081B60190E042
S11307B00E9406048110F5CF222009F442CEB6012E
S11307C080E290E00E9406042A94F6CFF601868126
S11307D0978102C08FEF9FEF2B96E2E10C94BC044B
S11307E0FC010590615070400110D8F780959095F8
S11307F08E0F9F1F0895FC016150704001900110FD
S1130800D8F7809590958E0F9F1F08950F931F938F
S1130810CF93DF93FB01238121FD03C08FEF9FEF73
S11308202CC022FF16C0468157812481358142178E
S1130830530744F4A081B1819D012F5F3F4F318361
S113084020838C93268137812F5F3F4F3783268304
S113085014C08B01EC01FB010084F185E02D0995A6
S1130860892BE1F6D80116968D919C9117970196E4
S113087017969C938E931697CE01DF91CF911F917B
S11308800F910895FA01AA27283051F1203181F1FE
S1130890E8946F936E7F6E5F7F4F8F4F9F4FAF4F84
S11308A0B1E03ED0B4E03CD0670F781F891F9A1F97
S11308B0A11D680F791F8A1F911DA11D6A0F711D4B
S11308C0811D911DA11D20D009F468943F912AE057
S11308D0269F11243019305D3193DEF6CF0108953F
S11308E0462F4770405D4193B3E00FD0C9F7F6CF70
S11308F0462F4F70405D4A3318F0495D31FD405238
S1130900419302D0A9F7EACFB4E0A69597958795CD
S113091077956795BA95C9F70097610571050895AC
S11309209B01AC010A2E0694579547953795279558
S1130930BA95C9F7620F731F841F951FA01D0895F0
S11309402F923F924F925F926F927F928F929F92DB
S1130950AF92BF92CF92DF92EF92FF920F931F93C9
S1130960CF93DF93CDB7DEB7CA1BDB0B0FB6F8947A
S1130970DEBF0FBECDBF09942A88398848885F84BA
S11309806E847D848C849B84AA84B984C884DF802B
S1130990EE80FD800C811B81AA81B981CE0FD11D0F
S11309A00FB6F894DEBF0FBECDBFED010895F894E5
S10509B0FFCF73
S10D09B24261756D3A0025640000EF
S9030000FC
